{
  "contractName": "PellCoin",
  "abi": [
    {
      "inputs": [],
      "stateMutability": "nonpayable",
      "type": "constructor"
    },
    {
      "anonymous": false,
      "inputs": [
        {
          "indexed": true,
          "internalType": "address",
          "name": "owner",
          "type": "address"
        },
        {
          "indexed": true,
          "internalType": "address",
          "name": "spender",
          "type": "address"
        },
        {
          "indexed": false,
          "internalType": "uint256",
          "name": "value",
          "type": "uint256"
        }
      ],
      "name": "Approval",
      "type": "event"
    },
    {
      "anonymous": false,
      "inputs": [
        {
          "indexed": true,
          "internalType": "address",
          "name": "from",
          "type": "address"
        },
        {
          "indexed": true,
          "internalType": "address",
          "name": "to",
          "type": "address"
        },
        {
          "indexed": false,
          "internalType": "uint256",
          "name": "value",
          "type": "uint256"
        }
      ],
      "name": "Transfer",
      "type": "event"
    },
    {
      "inputs": [],
      "name": "name",
      "outputs": [
        {
          "internalType": "string",
          "name": "",
          "type": "string"
        }
      ],
      "stateMutability": "view",
      "type": "function",
      "constant": true
    },
    {
      "inputs": [],
      "name": "symbol",
      "outputs": [
        {
          "internalType": "string",
          "name": "",
          "type": "string"
        }
      ],
      "stateMutability": "view",
      "type": "function",
      "constant": true
    },
    {
      "inputs": [],
      "name": "decimals",
      "outputs": [
        {
          "internalType": "uint8",
          "name": "",
          "type": "uint8"
        }
      ],
      "stateMutability": "view",
      "type": "function",
      "constant": true
    },
    {
      "inputs": [
        {
          "internalType": "address",
          "name": "owner",
          "type": "address"
        }
      ],
      "name": "balanceOf",
      "outputs": [
        {
          "internalType": "uint256",
          "name": "",
          "type": "uint256"
        }
      ],
      "stateMutability": "view",
      "type": "function",
      "constant": true
    },
    {
      "inputs": [
        {
          "internalType": "address",
          "name": "to",
          "type": "address"
        },
        {
          "internalType": "uint256",
          "name": "value",
          "type": "uint256"
        }
      ],
      "name": "transfer",
      "outputs": [
        {
          "internalType": "bool",
          "name": "",
          "type": "bool"
        }
      ],
      "stateMutability": "nonpayable",
      "type": "function"
    },
    {
      "inputs": [
        {
          "internalType": "address",
          "name": "spender",
          "type": "address"
        },
        {
          "internalType": "uint256",
          "name": "value",
          "type": "uint256"
        }
      ],
      "name": "approve",
      "outputs": [
        {
          "internalType": "bool",
          "name": "",
          "type": "bool"
        }
      ],
      "stateMutability": "nonpayable",
      "type": "function"
    },
    {
      "inputs": [
        {
          "internalType": "address",
          "name": "from",
          "type": "address"
        },
        {
          "internalType": "address",
          "name": "to",
          "type": "address"
        },
        {
          "internalType": "uint256",
          "name": "value",
          "type": "uint256"
        }
      ],
      "name": "transferFrom",
      "outputs": [
        {
          "internalType": "bool",
          "name": "",
          "type": "bool"
        }
      ],
      "stateMutability": "nonpayable",
      "type": "function"
    }
  ],
  "bytecode": "0x60806040526a52b7d2dcc80cd2e40000006000556040518060400160405280600981526020017f50656c6c436f696e730000000000000000000000000000000000000000000000815250600190805190602001906200006092919062000125565b506040518060400160405280600481526020017f50656c6c0000000000000000000000000000000000000000000000000000000081525060029080519060200190620000ae92919062000125565b506012600360006101000a81548160ff021916908360ff160217905550348015620000d857600080fd5b50600054600460003373ffffffffffffffffffffffffffffffffffffffff1673ffffffffffffffffffffffffffffffffffffffff168152602001908152602001600020819055506200023a565b8280546200013390620001d5565b90600052602060002090601f016020900481019282620001575760008555620001a3565b82601f106200017257805160ff1916838001178555620001a3565b82800160010185558215620001a3579182015b82811115620001a257825182559160200191906001019062000185565b5b509050620001b29190620001b6565b5090565b5b80821115620001d1576000816000905550600101620001b7565b5090565b60006002820490506001821680620001ee57607f821691505b602082108114156200020557620002046200020b565b5b50919050565b7f4e487b7100000000000000000000000000000000000000000000000000000000600052602260045260246000fd5b610d74806200024a6000396000f3fe608060405234801561001057600080fd5b506004361061007d5760003560e01c8063313ce5671161005b578063313ce5671461010057806370a082311461011e57806395d89b411461014e578063a9059cbb1461016c5761007d565b806306fdde0314610082578063095ea7b3146100a057806323b872dd146100d0575b600080fd5b61008a61019c565b6040516100979190610a09565b60405180910390f35b6100ba60048036038101906100b591906108df565b61022e565b6040516100c791906109ee565b60405180910390f35b6100ea60048036038101906100e5919061088c565b610320565b6040516100f791906109ee565b60405180910390f35b6101086105db565b6040516101159190610aa6565b60405180910390f35b6101386004803603810190610133919061085f565b6105f2565b6040516101459190610a8b565b60405180910390f35b61015661063b565b6040516101639190610a09565b60405180910390f35b610186600480360381019061018191906108df565b6106cd565b60405161019391906109ee565b60405180910390f35b6060600180546101ab90610bef565b80601f01602080910402602001604051908101604052809291908181526020018280546101d790610bef565b80156102245780601f106101f957610100808354040283529160200191610224565b820191906000526020600020905b81548152906001019060200180831161020757829003601f168201915b5050505050905090565b600081600560003373ffffffffffffffffffffffffffffffffffffffff1673ffffffffffffffffffffffffffffffffffffffff16815260200190815260200160002060008573ffffffffffffffffffffffffffffffffffffffff1673ffffffffffffffffffffffffffffffffffffffff168152602001908152602001600020819055508273ffffffffffffffffffffffffffffffffffffffff163373ffffffffffffffffffffffffffffffffffffffff167f8c5be1e5ebec7d5bd14f71427d1e84f3dd0314c0f7b2291e5b200ac8c7c3b9258460405161030e9190610a8b565b60405180910390a36001905092915050565b60008161032c856105f2565b101561036d576040517f08c379a000000000000000000000000000000000000000000000000000000000815260040161036490610a2b565b60405180910390fd5b81600560008673ffffffffffffffffffffffffffffffffffffffff1673ffffffffffffffffffffffffffffffffffffffff16815260200190815260200160002060003373ffffffffffffffffffffffffffffffffffffffff1673ffffffffffffffffffffffffffffffffffffffff16815260200190815260200160002054101561042c576040517f08c379a000000000000000000000000000000000000000000000000000000000815260040161042390610a4b565b60405180910390fd5b81600460008573ffffffffffffffffffffffffffffffffffffffff1673ffffffffffffffffffffffffffffffffffffffff168152602001908152602001600020600082825461047b9190610add565b9250508190555081600460008673ffffffffffffffffffffffffffffffffffffffff1673ffffffffffffffffffffffffffffffffffffffff16815260200190815260200160002060008282546104d19190610b33565b9250508190555081600560008673ffffffffffffffffffffffffffffffffffffffff1673ffffffffffffffffffffffffffffffffffffffff16815260200190815260200160002060003373ffffffffffffffffffffffffffffffffffffffff1673ffffffffffffffffffffffffffffffffffffffff16815260200190815260200160002060008282546105649190610b33565b925050819055508273ffffffffffffffffffffffffffffffffffffffff168473ffffffffffffffffffffffffffffffffffffffff167fddf252ad1be2c89b69c2b068fc378daa952ba7f163c4a11628f55a4df523b3ef846040516105c89190610a8b565b60405180910390a3600190509392505050565b6000600360009054906101000a900460ff16905090565b6000600460008373ffffffffffffffffffffffffffffffffffffffff1673ffffffffffffffffffffffffffffffffffffffff168152602001908152602001600020549050919050565b60606002805461064a90610bef565b80601f016020809104026020016040519081016040528092919081815260200182805461067690610bef565b80156106c35780601f10610698576101008083540402835291602001916106c3565b820191906000526020600020905b8154815290600101906020018083116106a657829003601f168201915b5050505050905090565b6000816106d9336105f2565b101561071a576040517f08c379a000000000000000000000000000000000000000000000000000000000815260040161071190610a6b565b60405180910390fd5b81600460008573ffffffffffffffffffffffffffffffffffffffff1673ffffffffffffffffffffffffffffffffffffffff16815260200190815260200160002060008282546107699190610add565b9250508190555081600460003373ffffffffffffffffffffffffffffffffffffffff1673ffffffffffffffffffffffffffffffffffffffff16815260200190815260200160002060008282546107bf9190610b33565b925050819055508273ffffffffffffffffffffffffffffffffffffffff163373ffffffffffffffffffffffffffffffffffffffff167fddf252ad1be2c89b69c2b068fc378daa952ba7f163c4a11628f55a4df523b3ef846040516108239190610a8b565b60405180910390a36001905092915050565b60008135905061084481610d10565b92915050565b60008135905061085981610d27565b92915050565b60006020828403121561087557610874610c7f565b5b600061088384828501610835565b91505092915050565b6000806000606084860312156108a5576108a4610c7f565b5b60006108b386828701610835565b93505060206108c486828701610835565b92505060406108d58682870161084a565b9150509250925092565b600080604083850312156108f6576108f5610c7f565b5b600061090485828601610835565b92505060206109158582860161084a565b9150509250929050565b61092881610b79565b82525050565b600061093982610ac1565b6109438185610acc565b9350610953818560208601610bbc565b61095c81610c84565b840191505092915050565b6000610974601583610acc565b915061097f82610c95565b602082019050919050565b6000610997601783610acc565b91506109a282610cbe565b602082019050919050565b60006109ba601483610acc565b91506109c582610ce7565b602082019050919050565b6109d981610ba5565b82525050565b6109e881610baf565b82525050565b6000602082019050610a03600083018461091f565b92915050565b60006020820190508181036000830152610a23818461092e565b905092915050565b60006020820190508181036000830152610a4481610967565b9050919050565b60006020820190508181036000830152610a648161098a565b9050919050565b60006020820190508181036000830152610a84816109ad565b9050919050565b6000602082019050610aa060008301846109d0565b92915050565b6000602082019050610abb60008301846109df565b92915050565b600081519050919050565b600082825260208201905092915050565b6000610ae882610ba5565b9150610af383610ba5565b9250827fffffffffffffffffffffffffffffffffffffffffffffffffffffffffffffffff03821115610b2857610b27610c21565b5b828201905092915050565b6000610b3e82610ba5565b9150610b4983610ba5565b925082821015610b5c57610b5b610c21565b5b828203905092915050565b6000610b7282610b85565b9050919050565b60008115159050919050565b600073ffffffffffffffffffffffffffffffffffffffff82169050919050565b6000819050919050565b600060ff82169050919050565b60005b83811015610bda578082015181840152602081019050610bbf565b83811115610be9576000848401525b50505050565b60006002820490506001821680610c0757607f821691505b60208210811415610c1b57610c1a610c50565b5b50919050565b7f4e487b7100000000000000000000000000000000000000000000000000000000600052601160045260246000fd5b7f4e487b7100000000000000000000000000000000000000000000000000000000600052602260045260246000fd5b600080fd5b6000601f19601f8301169050919050565b7f496e73756666696369656e742062616c616e63652e0000000000000000000000600082015250565b7f496e73756666696369656e7420616c6c6f77616e63652e000000000000000000600082015250565b7f496e737566696369656e742062616c616e63652e000000000000000000000000600082015250565b610d1981610b67565b8114610d2457600080fd5b50565b610d3081610ba5565b8114610d3b57600080fd5b5056fea26469706673582212200f367008da81471480f3fb755f43046215816d3ab9abdebddcc7b08eba59f4b564736f6c63430008070033",
  "immutableReferences": {},
  "source": "//SPDX-License-Identifier: MIT\r\n// Author: Joo Paulo de So Severino\r\n\r\npragma solidity ^0.8.7;\r\n\r\ncontract PellCoin {\r\n    uint256 private _totalSupply = 100000000 * 10**18;\r\n    string private _name = \"PellCoins\";\r\n    string private _symbol = \"Pell\";\r\n    uint8 private _decimals = 18;\r\n\r\n    mapping(address => uint256) private _balances;\r\n\r\n    mapping(address => mapping(address => uint256)) private _allowances;\r\n\r\n    event Transfer(address indexed from, address indexed to, uint256 value);\r\n\r\n    event Approval(\r\n        address indexed owner,\r\n        address indexed spender,\r\n        uint256 value\r\n    );\r\n\r\n    constructor() {\r\n        _balances[msg.sender] = _totalSupply;\r\n    }\r\n\r\n    function name() public view returns (string memory) {\r\n        return _name;\r\n    }\r\n\r\n    function symbol() public view returns (string memory) {\r\n        return _symbol;\r\n    }\r\n\r\n    function decimals() public view returns (uint8) {\r\n        return _decimals;\r\n    }\r\n\r\n    function balanceOf(address owner) public view returns (uint256) {\r\n        return _balances[owner];\r\n    }\r\n\r\n    function transfer(address to, uint256 value) public returns (bool) {\r\n        require(balanceOf(msg.sender) >= value, \"Insuficient balance.\");\r\n        _balances[to] += value;\r\n        _balances[msg.sender] -= value;\r\n        emit Transfer(msg.sender, to, value);\r\n        return true;\r\n    }\r\n\r\n    function approve(address spender, uint256 value) public returns (bool) {\r\n        _allowances[msg.sender][spender] = value;\r\n        emit Approval(msg.sender, spender, value);\r\n        return true;\r\n    }\r\n\r\n    function transferFrom(\r\n        address from,\r\n        address to,\r\n        uint256 value\r\n    ) public returns (bool) {\r\n        require(balanceOf(from) >= value, \"Insufficient balance.\");\r\n        require(\r\n            _allowances[from][msg.sender] >= value,\r\n            \"Insufficient allowance.\"\r\n        );\r\n        _balances[to] += value;\r\n        _balances[from] -= value;\r\n        _allowances[from][msg.sender] -= value;\r\n        emit Transfer(from, to, value);\r\n        return true;\r\n    }\r\n}\r\n",
  "sourcePath": "C:\\PellCoin\\contracts\\PellCoin.sol",
  "compiler": {
    "name": "solc",
    "version": "0.8.7+commit.e28d00a7.Emscripten.clang"
  },
  "schemaVersion": "3.4.16",
  "updatedAt": "2024-07-16T19:38:34.848Z",
  "networkType": "ethereum",
  "devdoc": {
    "kind": "dev",
    "methods": {},
    "version": 1
  },
  "userdoc": {
    "kind": "user",
    "methods": {},
    "version": 1
  }
}